:100000000C942A000C9447000C9447000C94470071
:100010000C9447000C9447000C9447000C94470044
:100020000C9447000C9447000C9447000C94470034
:100030000C9447000C9447000C9447000C94470024
:100040000C9447000C9447000C9447000C94470014
:100050000C94470011241FBECFE5D8E0DEBFCDBF12
:1000600010E0A0E6B0E0EAE6FAE002C005900D92EA
:10007000A037B107D9F720E0A0E7B0E001C01D929A
:10008000AE38B207E1F70E94C9030C9433050C9413
:1000900000000E94B40140E064E081E00E94A10001
:1000A00089E00E94BF018FEF0E94BF0141E064E040
:1000B00081E00E94A10040E064E081E00E94A10094
:1000C0008BE00E94BF0182E00E94BF0141E064E03A
:1000D00081E00E94A10040E064E081E00E94A10074
:1000E0008CE00E94BF0181E00E94BF0141E064E01A
:1000F00081E00E94A10040E064E081E00E94A10054
:100100008AE00E94BF0189E00E94BF0141E064E0F3
:1001100081E00C94A100CF93DF93D82FC62F40E04D
:1001200064E081E00E94A1008D2F0E94BF018C2F0E
:100130000E94BF0141E064E081E0DF91CF910C9427
:10014000A1008130A9F028F0823009F1833071F1EB
:10015000089581E090E001C0880F6A95EAF79BB3AB
:10016000442319F0892B8BBB089580958923FBCFFD
:1001700081E090E001C0880F6A95EAF798B34423C4
:1001800019F0892B88BB089580958923FBCF81E0E6
:1001900090E001C0880F6A95EAF795B3442319F0FF
:1001A000892B85BB089580958923FBCF81E090E062
:1001B00001C0880F6A95EAF792B3442319F0892B9E
:1001C00082BB089580958923FBCF813081F028F090
:1001D0008230B9F08330F9F008958BB321E030E03C
:1001E00001C0220F6A95EAF7822B8BBB089588B372
:1001F00021E030E001C0220F6A95EAF7822B88BB2C
:10020000089585B321E030E001C0220F6A95EAF736
:10021000822B85BB089582B321E030E001C0220F1C
:100220006A95EAF7822B82BB0895813079F028F035
:10023000823071F0833071F0089589B390E002C08C
:10024000959587956A95E2F78170089586B3F6CF04
:1002500083B3F4CF80B3F2CF8130A9F028F082309D
:1002600009F1833071F1089581E090E001C0880FB9
:100270006A95EAF79AB3442319F0892B8ABB08954B
:1002800080958923FBCF81E090E001C0880F6A95BB
:10029000EAF797B3442319F0892B87BB089580951B
:1002A0008923FBCF81E090E001C0880F6A95EAF7CF
:1002B00094B3442319F0892B84BB08958095892336
:1002C000FBCF81E090E001C0880F6A95EAF791B317
:1002D000442319F0892B81BB089580958923FBCF96
:1002E000813041F028F0823039F0833039F00895C0
:1002F0006BBB089568BB089565BB089562BB089504
:10030000813041F028F0823039F0833039F008959F
:100310008BB3089588B3089585B3089582B3089583
:10032000813069F028F0823089F08330B1F008958F
:10033000662319F08FEF8ABB08951ABA08956623D1
:1003400019F08FEF87BB089517BA0895662319F047
:100350008FEF84BB089514BA0895662319F08FEFC8
:1003600081BB089511BA089587B3806B87BB6C9ADF
:10037000689A6E9A08956C98689A6E9A08958FB9E3
:10038000779BFECF8FB10895779BFECF8FB10895F5
:10039000E0E7F0E084E481878CE082878BE790E0FF
:1003A0009583848387E0868322E830E0318320834D
:1003B0008283CF010C94B002DC01FB018C91282FC9
:1003C00022952F709AE08F70299F800D11248083D1
:1003D00011968C911197282F22952F708F70299F3D
:1003E000800D1124818312968C911297282F2295CB
:1003F0002F708F70299F800D1124828314968C9109
:100400001497282F22952F708F70299F800D11240B
:10041000848315968C911597282F22952F708F70B5
:10042000299F800D1124858316968C91282F229563
:100430002F708F70299F800D1124868308950F934C
:100440001F93CF93DF938C01C0E7D0E0E881F9815F
:10045000108281E08A8380ED0E945003CE010E94C9
:10046000BD020E944A0381ED0E945003CE010E940A
:10047000DB020E944A03B8018C819D81DF91CF91FC
:100480001F910F910C94DC01FC01DB0110828C9117
:100490002AE0622F0E94020430E1839FA001112410
:1004A000942B918311968C9111970E94020430E154
:1004B000839FA0011124942B928312968C91129702
:1004C0000E94020430E1839FA0011124942B9383A6
:1004D00014968C9114970E94020430E1839FA0012E
:1004E0001124942B958315968C9115970E940204E4
:1004F00030E1839FA0011124942B968316968C9152
:100500000E94020440E1849F90011124922B978362
:1005100008950F931F93CF93DF938C01C0E7D0E032
:10052000E881F981108281E08A8380ED0E94500386
:10053000CE010E94BD020E944A03B80188819981C0
:100540000E94440288E08A8380ED0E945003CE011D
:100550000E94BD02DF91CF911F910F910C944A032D
:10056000FC018285813039F08CE080B9818582B9C7
:1005700013821782089580E2F8CFFC01138294E879
:10058000A3818281A81710F081E008952081318134
:10059000A20FB32FB11D8C9183B996BF06B607FE8B
:1005A000FDCF81B1887F883221F483818F5F83837F
:1005B000E7CF8FEF0895FC01178284EC86BF94EC9F
:1005C00006B607FEFDCF81B1887F803581F4A78113
:1005D0008681A81770F483B124813581A20FB32FCF
:1005E000B11D8C9387818F5F878396BFE9CF8FEF93
:1005F000089581E00895FC0184EC86BF8FE19EE4BC
:100600000197F1F700C0000094EC06B607FEFDCF9D
:1006100081B1887F883B81F4A3818281A81780F40F
:1006200020813181A20FB32FB11D8C9183B98381B9
:100630008F5F838396BFE9CF883AE1F38FEF089508
:1006400081E00895FC01178284EC86BF8FE19EE46F
:100650000197F1F700C0000094EC06B607FEFDCF4D
:1006600081B1887F803881F4A7818681A81780F4C2
:1006700083B124813581A20FB32FB11D8C93878163
:100680008F5F878396BFE9CF8036E1F38FEF0895C0
:1006900082E0089584E986BF06B604FCFDCF089584
:1006A0001F93CF93DF93C82FD4EA14E8D6BF06B6C2
:1006B00007FEFDCF81B1887F8830C1F7C3B916BF6F
:1006C00006B607FEFDCF81B1887F883129F08034DE
:1006D00019F00E944A03EACFDF91CF911F9108954C
:1006E00083E389B9539A549A529808955D9BFECF3B
:1006F0008CB90895CF93DF93EC018991811103C0E8
:10070000DF91CF9108950E947603F7CFEF92FF9289
:100710000F931F93CF93DF93D82FC0E02AE081116E
:100720001CC0EC2EF12CC7010E940E048C0120E0AD
:100730003AE0E22F022E000CFF0BEE15FF0594F0BD
:10074000C1500C2E000CDD0BC7FF16C0DF91CF91FE
:100750001F910F91FF90EF900895622F0E94020465
:10076000CF5FDDCFE00FF11F8D2F632F0E940204BA
:100770009083D82F2F5FDDCFF801EC0FFD1F808114
:10078000805D0E9476032197DFCF5F9BFECF8CB107
:100790000895CF93DF9300D000D000D01F92CDB743
:1007A000DEB70E94C8010E9470030E944900CE017A
:1007B00001960E941F028B810E94860386E690E0CC
:1007C0000E947A038A810E94860386E690E00E9456
:1007D0007A0389810E94860388E690E00E947A036A
:1007E00066E082E00E948B0065E081E00E948B0061
:1007F0002FEF89E698E1215080409040E1F700C05A
:100800000000D5CF991B79E004C0991F961708F016
:10081000961B881F7A95C9F7809508950F931F93AB
:10082000CF93DF938230910510F482E090E0E09165
:100830008C00F0918D0030E020E0B0E0A0E0309737
:1008400099F42115310509F44AC0281B390B2430CD
:100850003105D8F58A819B816115710589F1FB010C
:1008600093838283FE0111C04081518102811381F3
:1008700048175907E0F04817590799F4109761F0A5
:1008800012960C93129713961C933296CF01DF9118
:10089000CF911F910F91089500938C0010938D00BC
:1008A000F4CF2115310551F04217530738F0A90153
:1008B000DB019A01BD01DF01F801C1CFEF01F9CFE2
:1008C00090938D0080938C00CDCFFE01E20FF31F3B
:1008D000819391932250310939832883D7CF209176
:1008E0008A0030918B00232B41F4209162003091DB
:1008F000630030938B0020938A0020916000309138
:1009000061002115310541F42DB73EB740916400D7
:1009100050916500241B350BE0918A00F0918B000B
:10092000E217F307A0F42E1B3F0B2817390778F0C6
:10093000AC014E5F5F4F2417350748F04E0F5F1F25
:1009400050938B0040938A00819391939FCFF0E066
:10095000E0E09CCFCF93DF930097E9F0FC01329762
:1009600013821282A0918C00B0918D00ED0130E0D5
:1009700020E01097A1F420813181820F931F2091F4
:100980008A0030918B002817390709F061C0F09375
:100990008B00E0938A00DF91CF910895EA01CE1792
:1009A000DF07E8F54A815B819E0141155105B1F7EA
:1009B000E901FB83EA8349915991C40FD51FEC17D4
:1009C000FD0761F4808191810296840F951FE901F2
:1009D00099838883828193819B838A83F0E0E0E01E
:1009E00012968D919C9113970097B9F52D913C919A
:1009F0001197CD010296820F931F20918A003091AA
:100A00008B002817390739F6309751F510928D0071
:100A100010928C00B0938B00A0938A00BCCFD3833C
:100A2000C28340815181840F951FC817D90761F493
:100A30004E5F5F4F88819981480F591F51834083D2
:100A40008A819B81938382832115310509F0B0CF80
:100A5000F0938D00E0938C009ECFFD01DC01C0CFB0
:0A0A600013821282D7CFF894FFCF63
:100A6A0000008E0020003A002020202020200000D4
:00000001FF
